{
  "_format": "hh3-artifact-1",
  "contractName": "CertificateVerifier",
  "sourceName": "contracts/CertificateVerifier.sol",
  "abi": [
    {
      "inputs": [],
      "stateMutability": "nonpayable",
      "type": "constructor"
    },
    {
      "anonymous": false,
      "inputs": [
        {
          "indexed": false,
          "internalType": "string",
          "name": "hash",
          "type": "string"
        },
        {
          "indexed": false,
          "internalType": "address",
          "name": "storedBy",
          "type": "address"
        },
        {
          "indexed": false,
          "internalType": "uint256",
          "name": "timestamp",
          "type": "uint256"
        }
      ],
      "name": "CertificateStored",
      "type": "event"
    },
    {
      "inputs": [],
      "name": "owner",
      "outputs": [
        {
          "internalType": "address",
          "name": "",
          "type": "address"
        }
      ],
      "stateMutability": "view",
      "type": "function"
    },
    {
      "inputs": [
        {
          "internalType": "string",
          "name": "certHash",
          "type": "string"
        }
      ],
      "name": "storeCertificate",
      "outputs": [],
      "stateMutability": "nonpayable",
      "type": "function"
    },
    {
      "inputs": [
        {
          "internalType": "string",
          "name": "certHash",
          "type": "string"
        }
      ],
      "name": "verifyCertificate",
      "outputs": [
        {
          "internalType": "bool",
          "name": "",
          "type": "bool"
        }
      ],
      "stateMutability": "view",
      "type": "function"
    }
  ],
  "bytecode": "0x608060405234801561001057600080fd5b50336000806101000a81548173ffffffffffffffffffffffffffffffffffffffff021916908373ffffffffffffffffffffffffffffffffffffffff1602179055506106e3806100606000396000f3fe608060405234801561001057600080fd5b50600436106100415760003560e01c80638b23d875146100465780638da5cb5b14610076578063aaf4004014610094575b600080fd5b610060600480360381019061005b91906103d1565b6100b0565b60405161006d9190610435565b60405180910390f35b61007e6100e5565b60405161008b9190610491565b60405180910390f35b6100ae60048036038101906100a991906103d1565b610109565b005b60006001826040516100c2919061051d565b908152602001604051809103902060009054906101000a900460ff169050919050565b60008054906101000a900473ffffffffffffffffffffffffffffffffffffffff1681565b60008054906101000a900473ffffffffffffffffffffffffffffffffffffffff1673ffffffffffffffffffffffffffffffffffffffff163373ffffffffffffffffffffffffffffffffffffffff1614610197576040517f08c379a000000000000000000000000000000000000000000000000000000000815260040161018e90610591565b60405180910390fd5b6001816040516101a7919061051d565b908152602001604051809103902060009054906101000a900460ff1615610203576040517f08c379a00000000000000000000000000000000000000000000000000000000081526004016101fa906105fd565b60405180910390fd5b60018082604051610214919061051d565b908152602001604051809103902060006101000a81548160ff0219169083151502179055507f9b570906ee2b6cce3c6b0dfc73c61a7c38d4e825722ef4f3589cf07d7faeca8e81334260405161026c9392919061066f565b60405180910390a150565b6000604051905090565b600080fd5b600080fd5b600080fd5b600080fd5b6000601f19601f8301169050919050565b7f4e487b7100000000000000000000000000000000000000000000000000000000600052604160045260246000fd5b6102de82610295565b810181811067ffffffffffffffff821117156102fd576102fc6102a6565b5b80604052505050565b6000610310610277565b905061031c82826102d5565b919050565b600067ffffffffffffffff82111561033c5761033b6102a6565b5b61034582610295565b9050602081019050919050565b82818337600083830152505050565b600061037461036f84610321565b610306565b9050828152602081018484840111156103905761038f610290565b5b61039b848285610352565b509392505050565b600082601f8301126103b8576103b761028b565b5b81356103c8848260208601610361565b91505092915050565b6000602082840312156103e7576103e6610281565b5b600082013567ffffffffffffffff81111561040557610404610286565b5b610411848285016103a3565b91505092915050565b60008115159050919050565b61042f8161041a565b82525050565b600060208201905061044a6000830184610426565b92915050565b600073ffffffffffffffffffffffffffffffffffffffff82169050919050565b600061047b82610450565b9050919050565b61048b81610470565b82525050565b60006020820190506104a66000830184610482565b92915050565b600081519050919050565b600081905092915050565b60005b838110156104e05780820151818401526020810190506104c5565b60008484015250505050565b60006104f7826104ac565b61050181856104b7565b93506105118185602086016104c2565b80840191505092915050565b600061052982846104ec565b915081905092915050565b600082825260208201905092915050565b7f4f6e6c79206f776e65722063616e2063616c6c20746869730000000000000000600082015250565b600061057b601883610534565b915061058682610545565b602082019050919050565b600060208201905081810360008301526105aa8161056e565b9050919050565b7f436572746966696361746520616c726561647920657869737473000000000000600082015250565b60006105e7601a83610534565b91506105f2826105b1565b602082019050919050565b60006020820190508181036000830152610616816105da565b9050919050565b6000610628826104ac565b6106328185610534565b93506106428185602086016104c2565b61064b81610295565b840191505092915050565b6000819050919050565b61066981610656565b82525050565b60006060820190508181036000830152610689818661061d565b90506106986020830185610482565b6106a56040830184610660565b94935050505056fea264697066735822122062d43bcf340a509cc7111d54235fbc0e840a2ca435f43a3f52f7b12c8439bf5464736f6c63430008130033",
  "linkReferences": {},
  "deployedLinkReferences": {},
  "immutableReferences": {},
  "inputSourceName": "project/contracts/CertificateVerifier.sol",
  "buildInfoId": "solc-0_8_19-4db84084e82b6b2ec1ebcea4d6f7ecab731d3fe4"
}